{
  "contractName": "AbstractLogic",
  "abi": [
    {
      "constant": false,
      "inputs": [
        {
          "name": "amount",
          "type": "uint256"
        }
      ],
      "name": "redeem",
      "outputs": [],
      "payable": false,
      "stateMutability": "nonpayable",
      "type": "function"
    }
  ],
  "bytecode": "0x6080604052348015600f57600080fd5b50609d8061001e6000396000f300608060405260043610603f576000357c0100000000000000000000000000000000000000000000000000000000900463ffffffff168063db006a75146044575b600080fd5b348015604f57600080fd5b50606c60048036038101908080359060200190929190505050606e565b005b505600a165627a7a723058201ccb4cb4bf8b954e3a33f3835427ccffcfa2a6c9acf901fb8b19c3bb067604c10029",
  "source": "pragma solidity ^0.4.24;\r\n\r\n/**\r\n * @title Proxy\r\n * @dev This proxy contract holds the reference to the \r\n */\r\ncontract Proxy {\r\n\r\n    AbstractLogic currentLogicContract;\r\n    mapping (address => uint) userBalances;\r\n\r\n    function newLogicDeployed(address newLogic) public {\r\n        currentLogicContract = AbstractLogic(newLogic);\r\n    }\r\n\r\n    function redeem(uint amount) public {\r\n        currentLogicContract.redeem(amount);\r\n    }\r\n\r\n    function redeemTokens(uint theTokensToAward) public {\r\n        userBalances[tx.origin] = theTokensToAward;\r\n    }\r\n\r\n    function getBalance() public returns(uint) {\r\n        return userBalances[tx.origin];\r\n    }\r\n}\r\n\r\ncontract AbstractLogic {\r\n    function redeem(uint amount) public {}\r\n}\r\n",
  "sourcePath": "C:\\Users\\reson\\Documents\\GitHub\\upgradeable-smart-contracts\\ProxyContract\\contracts\\Proxy.sol",
  "compiler": {
    "name": "solc",
    "version": "0.4.24+commit.e67f0147.Emscripten.clang"
  },
  "schemaVersion": "2.0.1",
  "updatedAt": "2018-10-04T02:45:22.372Z"
}