{
  "contractName": "AbstractProxy",
  "abi": [
    {
      "constant": false,
      "inputs": [
        {
          "name": "theLogicAddress",
          "type": "address"
        }
      ],
      "name": "newLogicDeployed",
      "outputs": [],
      "payable": false,
      "stateMutability": "nonpayable",
      "type": "function"
    },
    {
      "constant": false,
      "inputs": [
        {
          "name": "theTokensToAward",
          "type": "uint256"
        }
      ],
      "name": "redeemTokens",
      "outputs": [],
      "payable": false,
      "stateMutability": "nonpayable",
      "type": "function"
    }
  ],
  "bytecode": "0x608060405234801561001057600080fd5b5060ea8061001f6000396000f3006080604052600436106049576000357c0100000000000000000000000000000000000000000000000000000000900463ffffffff16806316c979e914604e578063a6e158f814608e575b600080fd5b348015605957600080fd5b50608c600480360381019080803573ffffffffffffffffffffffffffffffffffffffff16906020019092919050505060b8565b005b348015609957600080fd5b5060b66004803603810190808035906020019092919050505060bb565b005b50565b505600a165627a7a723058205a933070c2489f397296280e123559606b36474e9c6f8455fbd5c2c9da01c9f90029",
  "source": "pragma solidity ^0.4.24;\r\n\r\n/**\r\n * @title Logic1\r\n * @dev \r\n */\r\ncontract Logic1 {\r\n\r\n    AbstractProxy public proxyContract;\r\n\r\n    constructor(address theProxyAddress) public {\r\n        proxyContract = AbstractProxy(theProxyAddress);\r\n        proxyContract.newLogicDeployed(address(this));\r\n    }\r\n\r\n    function redeem(uint theAmount) public {\r\n\r\n        // Any conversion math or gathering data from oracles that\r\n        // effects the conversion rate or amount to tokens goes here...\r\n        uint tokensToAward = theAmount * 2;\r\n\r\n\r\n        // Call the proxy contract to update the users amount.\r\n        proxyContract.redeemTokens(tokensToAward);\r\n    }\r\n}\r\n\r\ncontract AbstractProxy {\r\n    function newLogicDeployed(address theLogicAddress) public {}\r\n    function redeemTokens(uint theTokensToAward) public {}\r\n}\r\n",
  "sourcePath": "C:\\Users\\reson\\Documents\\GitHub\\upgradeable-smart-contracts\\ProxyContract\\contracts\\Logic1.sol",
  "compiler": {
    "name": "solc",
    "version": "0.4.24+commit.e67f0147.Emscripten.clang"
  },
  "schemaVersion": "2.0.1",
  "updatedAt": "2018-10-04T03:00:29.891Z"
}