{
  "contractName": "Logic1",
  "abi": [
    {
      "constant": true,
      "inputs": [],
      "name": "proxyContract",
      "outputs": [
        {
          "name": "",
          "type": "address"
        }
      ],
      "payable": false,
      "stateMutability": "view",
      "type": "function"
    },
    {
      "inputs": [
        {
          "name": "theProxyAddress",
          "type": "address"
        }
      ],
      "payable": false,
      "stateMutability": "nonpayable",
      "type": "constructor"
    },
    {
      "constant": false,
      "inputs": [
        {
          "name": "theAmount",
          "type": "uint256"
        }
      ],
      "name": "redeem",
      "outputs": [],
      "payable": false,
      "stateMutability": "nonpayable",
      "type": "function"
    }
  ],
  "bytecode": "0x608060405234801561001057600080fd5b5060405160208061033183398101806040528101908080519060200190929190505050806000806101000a81548173ffffffffffffffffffffffffffffffffffffffff021916908373ffffffffffffffffffffffffffffffffffffffff1602179055506000809054906101000a900473ffffffffffffffffffffffffffffffffffffffff1673ffffffffffffffffffffffffffffffffffffffff166316c979e9306040518263ffffffff167c0100000000000000000000000000000000000000000000000000000000028152600401808273ffffffffffffffffffffffffffffffffffffffff1673ffffffffffffffffffffffffffffffffffffffff168152602001915050600060405180830381600087803b15801561012f57600080fd5b505af1158015610143573d6000803e3d6000fd5b50505050506101da806101576000396000f30060806040526004361061004c576000357c0100000000000000000000000000000000000000000000000000000000900463ffffffff168063db006a7514610051578063ed5504431461007e575b600080fd5b34801561005d57600080fd5b5061007c600480360381019080803590602001909291905050506100d5565b005b34801561008a57600080fd5b50610093610189565b604051808273ffffffffffffffffffffffffffffffffffffffff1673ffffffffffffffffffffffffffffffffffffffff16815260200191505060405180910390f35b60006002820290506000809054906101000a900473ffffffffffffffffffffffffffffffffffffffff1673ffffffffffffffffffffffffffffffffffffffff1663a6e158f8826040518263ffffffff167c010000000000000000000000000000000000000000000000000000000002815260040180828152602001915050600060405180830381600087803b15801561016d57600080fd5b505af1158015610181573d6000803e3d6000fd5b505050505050565b6000809054906101000a900473ffffffffffffffffffffffffffffffffffffffff16815600a165627a7a723058205b15c5a36805c41ca6f2421a6d028c22f64c78c7de3491d6201b17c606ba240f0029",
  "source": "pragma solidity ^0.4.24;\r\n\r\n/**\r\n * @title Logic1\r\n * @dev \r\n */\r\ncontract Logic1 {\r\n\r\n    AbstractProxy public proxyContract;\r\n\r\n    constructor(address theProxyAddress) public {\r\n        proxyContract = AbstractProxy(theProxyAddress);\r\n        proxyContract.newLogicDeployed(address(this));\r\n    }\r\n\r\n    function redeem(uint theAmount) public {\r\n\r\n        // Any conversion math or gathering data from oracles that\r\n        // effects the conversion rate or amount to tokens goes here...\r\n        uint tokensToAward = theAmount * 2;\r\n\r\n\r\n        // Call the proxy contract to update the users amount.\r\n        proxyContract.redeemTokens(tokensToAward);\r\n    }\r\n}\r\n\r\ncontract AbstractProxy {\r\n    function newLogicDeployed(address theLogicAddress) public {}\r\n    function redeemTokens(uint theTokensToAward) public {}\r\n}\r\n",
  "sourcePath": "C:\\Users\\reson\\Documents\\GitHub\\upgradeable-smart-contracts\\ProxyContract\\contracts\\Logic1.sol",
  "compiler": {
    "name": "solc",
    "version": "0.4.24+commit.e67f0147.Emscripten.clang"
  },
  "schemaVersion": "2.0.1",
  "updatedAt": "2018-10-04T03:00:29.890Z"
}