{
  "contractName": "Proxy",
  "abi": [
    {
      "constant": false,
      "inputs": [
        {
          "name": "newLogic",
          "type": "address"
        }
      ],
      "name": "newLogicDeployed",
      "outputs": [],
      "payable": false,
      "stateMutability": "nonpayable",
      "type": "function"
    },
    {
      "constant": false,
      "inputs": [
        {
          "name": "amount",
          "type": "uint256"
        }
      ],
      "name": "redeem",
      "outputs": [],
      "payable": false,
      "stateMutability": "nonpayable",
      "type": "function"
    },
    {
      "constant": false,
      "inputs": [
        {
          "name": "theTokensToAward",
          "type": "uint256"
        }
      ],
      "name": "redeemTokens",
      "outputs": [],
      "payable": false,
      "stateMutability": "nonpayable",
      "type": "function"
    },
    {
      "constant": false,
      "inputs": [],
      "name": "getBalance",
      "outputs": [
        {
          "name": "",
          "type": "uint256"
        }
      ],
      "payable": false,
      "stateMutability": "nonpayable",
      "type": "function"
    }
  ],
  "bytecode": "0x608060405234801561001057600080fd5b506102d7806100206000396000f300608060405260043610610062576000357c0100000000000000000000000000000000000000000000000000000000900463ffffffff16806312065fe01461006757806316c979e914610092578063a6e158f8146100d5578063db006a7514610102575b600080fd5b34801561007357600080fd5b5061007c61012f565b6040518082815260200191505060405180910390f35b34801561009e57600080fd5b506100d3600480360381019080803573ffffffffffffffffffffffffffffffffffffffff169060200190929190505050610176565b005b3480156100e157600080fd5b50610100600480360381019080803590602001909291905050506101b9565b005b34801561010e57600080fd5b5061012d60048036038101908080359060200190929190505050610200565b005b6000600160003273ffffffffffffffffffffffffffffffffffffffff1673ffffffffffffffffffffffffffffffffffffffff16815260200190815260200160002054905090565b806000806101000a81548173ffffffffffffffffffffffffffffffffffffffff021916908373ffffffffffffffffffffffffffffffffffffffff16021790555050565b80600160003273ffffffffffffffffffffffffffffffffffffffff1673ffffffffffffffffffffffffffffffffffffffff1681526020019081526020016000208190555050565b6000809054906101000a900473ffffffffffffffffffffffffffffffffffffffff1673ffffffffffffffffffffffffffffffffffffffff1663db006a75826040518263ffffffff167c010000000000000000000000000000000000000000000000000000000002815260040180828152602001915050600060405180830381600087803b15801561029057600080fd5b505af11580156102a4573d6000803e3d6000fd5b50505050505600a165627a7a723058208e0822af7a8f4f43516ab7c05972e431b9911d53777036cbd30eae479d0953990029",
  "source": "pragma solidity ^0.4.24;\r\n\r\n/**\r\n * @title Proxy\r\n * @dev This proxy contract holds the reference to the \r\n */\r\ncontract Proxy {\r\n\r\n    AbstractLogic currentLogicContract;\r\n    mapping (address => uint) userBalances;\r\n\r\n    function newLogicDeployed(address newLogic) public {\r\n        currentLogicContract = AbstractLogic(newLogic);\r\n    }\r\n\r\n    function redeem(uint amount) public {\r\n        currentLogicContract.redeem(amount);\r\n    }\r\n\r\n    function redeemTokens(uint theTokensToAward) public {\r\n        userBalances[tx.origin] = theTokensToAward;\r\n    }\r\n\r\n    function getBalance() public returns(uint) {\r\n        return userBalances[tx.origin];\r\n    }\r\n}\r\n\r\ncontract AbstractLogic {\r\n    function redeem(uint amount) public {}\r\n}\r\n",
  "sourcePath": "C:\\Users\\reson\\Documents\\GitHub\\upgradeable-smart-contracts\\ProxyContract\\contracts\\Proxy.sol",
  "compiler": {
    "name": "solc",
    "version": "0.4.24+commit.e67f0147.Emscripten.clang"
  },
  "schemaVersion": "2.0.1",
  "updatedAt": "2018-10-04T03:00:56.552Z"
}